:400000000080002011000000990800009908000008B5044B1A6803F53F5302331A6000F043FC00BFFA46004010B5054C237833B9044B13B10448AFF300800123237010BDF6
:400040004081FF1F00000000D80E0000084B10B51BB108490848AFF300800848036803B910BD074B002BFBD0BDE81040184700BF000000004481FF1FD80E0000C880FF1F46
:4000800000000000F0B5C669551E37788F421FD874788C421CD396F802E0F478C91B04FB0EF4E4B201FB04332C469BB2DB009BB2191D0C3389B29BB2C669765C013189B2FD
:4000C000994204F8016FF7D190F8233043B9F0BD2B46D11D002403F8014F8B42FBD1F3E72B46073213F8011FC94393421970F9D1F0BD19B10A2901D088B270474FF6FF7003
:400100007047C16170472DE9F04F14460746884689B00493C3694FF0000A9A78DB780A442344D2B2DBB2029203930DF1180B0AF10103DBB200260593F5B208EB05090AEBC3
:400140000503DBB25A46049938465FFA89F9FFF799FF01232246CDF800B04946384600F0CCF9059B01361D44029A08EB0603DBB29A42EDB2E0D80134039BE4B2A34201D94B
:40018000AA46D4E709B0BDE8F08F2DE9F84F06460D464FF6FF7A4FF6FE7B9146C269002492F802805F1E80F82640736817F8011F3046984750450CD05845F6D0C3B229469B
:4001C0004A46304645440134FFF79DFFEDB2E4B2EBE72046BDE8F88F10B4024C446010BCFFF7D3BFF300000010B404691346A4460A4610BC1721604707B502AA02F8011D24
:400200000121FFF7F1FF03B05DF804FB10B404690023A4461A46182110BC604710B404690023A4461A46192110BC6047F8B5044617460E46FFF7EAFF40212046FFF7DCFFFB
:4002400025693B46324620461721A8472046BDE8F840FFF7E3BF10B4C4680A46A4460023152110BC604710B4C4680A46A4460023162110BC604710B4C4681346A4460A461F
:4002800010BC1721604710B4C4680023A4461A46182110BC604710B4C4680023A4461A46192110BC604773B505460C462178172916D009D8152926D36278EE688DF8072008
:4002C00000232846B0471CE0192913D9FE291AD16278292128468DF8072000F05FF910E063780DF10702012128468DF80730FFF7C2FF06E00023EE681A4628460134B04786
:40030000D4E70234D2E702B070BD14392DE9F041044615461E46052932D8DFE801F0230303131010FFF772FF00212046FFF764FF29462046FFF760FF2046FFF76FFF0120EF
:40034000BDE8F081182D324607D918212046183DFFF76CFFEDB21836F4E729462046FFF765FFECE790F824300769FF2B04BF782380F82430BC463346BDE8F04114216047DE
:400380000020BDE8F08100000B39F8B5044615461F46042955D8DFE801F003540B1A29000AB9294900E029492046FFF77CFF1BE02AB92749FFF777FF23689B7C04E0254949
:4003C000FFF771FF2368DB7C84F822300CE0FFF75AFF81212046FFF73EFF29462046FFF742FF2046FFF757FF0120F8BDFFF74BFF94F822307E79402103EBC60606F0FF06B2
:400400002046FFF728FF310941F010012046FFF722FF06F00F012046FFF725FFB979204641F0B001FFF71FFF39793A68C90001F0F8012046013DFFF71EFF15F0FF05F3D1A1
:40044000CFE70020F8BD00BFDC0E0000E10E0000E60E0000ED0E000038B504460D46FFF793FF78B9092D09D00A2D0CD1204600F014F805492046FFF716FF03E0034920464E
:4004800000F006F8012038BDF40E00002C0F000001608B7C80F82230704738B5044600231A4645692821A84700231A46E56814212046A847204601224B2100F06FF8236841
:4004C00020461A79292100F069F8204600224B2100F064F8236820461A79292100F05EF8204601224B2100F059F8236820465A792921BDE8384000F051B813B58DF8062047
:40050000049A8DF8043002AB8DF8051043F8082D846801220F21A04702B010BD10B484680023A4461A46092110BC604710B484680023A4461A460A2110BC604710B48468E3
:400540000A46A44600230B2110BC604773B5044601228DF8042002680023557C8DF8053000918DF8063022686B46A668127C0F212046B0479DF806300133DBB29D428DF889
:400580000630F0D802B070BD07B50023694600930193FFF7DBFF03B05DF804FB10B444690023A44610BC6047002070470023084A036080F8233080F826308361FF238260B1
:4005C000C2600261426180F8243080F828307047A9050000F8B5069D17461E46FFF7E6FFC760066145618160BDE8F840FFF796BF2A2908B507D02B2909D029290AD1104612
:4006000000F0B0F906E00A2000F0C2F902E0642000F01EFC012008BD143938B514461D460C291BD8DFE801F0181A1A070F161A1A1A1A1A1A18007CB115F8010B013C00F09A
:40064000D9FBE4B2F7E790F824000021400800F06BFB01E000F0AAFB012038BD002038BD00B58FB062B600F0FDF9164B164A00931649174B03A8FFF7ADFF03A8FFF756FFDC
:40068000002103A8FFF75AFF03A8FFF77DFF03A81049FFF736FD012211460F4B03A8FFF79BFD0E4B0322012103A8FFF795FD0C4B0522012103A8FFF78FFD00200FB05DF8F4
:4006C00004FB00BFF10500000B0300005904000019060000391000003D1700004917000050170000F8B572B6584A594D1378002443F004031370062606FB045300219A8808
:400700001868013400F0E0FB082CF5D15148524D002450F8041F04F1105303F1220221F0FF062333C9B20B4452005B0002329A4206D012F8027C12F801EC07F806E0F5E7FF
:40074000A8420C44E5D1454A454C1378454F43F002031370137C192643F0020313742378A2F5863243F040032370413A1378002543F0100313703C4B03CBC2F8000EC2F844
:40078000041E03CBC2F8541DC2F8500DA03A1378182143F008031370344B61221A70344A032313809170022182F8801208224FF040210A7081F800322E4B1B78DBB281F8B4
:4007C000A1362D4B1A8041F2512223F8022C3B784FF4F07003F0010343EA450500F038FB013E05F003052FD0032DF0D1234B4FF480721A80224907221A70482000220A70AF
:4008000088701A70022203F8032C1E4A1E4D137843F001031370154B81221A7003F5F723012204331A70194B194A1B78DBB203F007011B0911705370164B44221A7094E836
:400840000F0007C52B80F8BDFEE700BFE84600405E170000FCFFFF474000004803500140A04300402542004018050048004800408040004008010049224200400440004028
:4008800006400040A2430040B0430040CF0100496E5800407658004008B500F0E9FA03680C2B00D1FEE7FEE780B51148114B0025C0B1A3F1100192C922460439161BB74211
:4008C00004D051F8046F42F8046BF7E7114653F8046C8C1AA64202D041F8045BF9E701381033E5E700F0CAFAFFF7BAFEFEE700BF0100000024180000104A114B10B41A6078
:40090000104A114C1368114843F4007313600023032B98BF54F823204FEA830188BF0C4A0133302B4250F3D10A4B1A780A4B1A700A4B064A10BC1A60FFF7D4BE0004FA055D
:400940000CED00E014ED00E0000000000080FF1F99080000BC760040C080FF1F08ED00E001BE704738B50446084DB4F5004F05D9286800F06DFAA4F50044F6E7034B586852
:400980006043BDE8384000F063BA00BFCC80FF1F024B1B7A584300F05BBA00BFCC80FF1F064B1F281A6800D901BE00F01F0000F1100352F8230042F82310704708ED00E06B
:4009C000072900D901BE1F2800D901BE00F01F0000F16040490100F56440C9B20170704738B5134B002401251C705D7400F038FA104A137843F01003137000F035FA0E4BF0
:400A00000F221A7008221A740C4B07211D602046FFF7D6FF0A492046FFF7C2FF094B10221A70094B1C70094B1C70094B1C7038BD74640040956400402764004080E100E0A4
:400A4000890A00005D81FF1F6481FF1F6D81FF1F6581FF1F024A137843F00203137070477464004010B5064C23781BB9FFF7B8FF01232370FFF7EEFF024B01221A6010BDEF
:400A80005C81FF1F00E100E070B5994B1C78994BE4B21A781D4612F0400F00F02281E00740F10B811B78453B052B00F20381DFE813F006007200010101010600C50004F028
:400AC000DF0604F00A04082C35D12B78894A452B25D1894B1B789BB1884B89491B681B78DBB20B70874B06211970FF2183F8A010002183F8E010844B01211970462318E04F
:400B0000824B1B7803F0020303F0FF0183B380490B7843F00A030B706023137024E0794B02211970FF2183F8A010002183F8E0104A23137029E00A2C29D1754B1A7842F02F
:400B4000A0021A70714A127802F0020202F0FF0172B12A78197812F0080F14BF09220A220A431A7060232B706A4B01221A600CE0694A137843F020031370624B52221A708E
:400B8000FF2283F8A02083F8E010344695E00020FFF7E6FEF9E704F0020303F0FF01002B2DD1594A544B10781B78984214D2534813780068DBB2C35C5148DBB20370514B04
:400BC00006201870FF2083F8A00083F8E01013780133DBB2137070E04C4B1B7803F0020303F0FF0123B14A4A137843F00A034CE0494A137843F020031370522252E0434BE4
:400C00001A78434B02F0020202F0FF0022B11A7842F09A021A7039E03F490A7842F020020A70384A52211170FF2182F8A01082F8E0001A7842F090021A703EE03749384AE5
:400C400008682F4913780978DBB2C9B2C15413780133DBB21370334B12781B789A4209D2284B02221A70FF2283F8A020002283F8E02022E0254B1B7803F0020303F0FF0138
:400C800053B1234A137843F00903137060232B70204B01221A6010E01F4A137843F0200313701222174B1A70FF2283F8A02083F8E01002E00020FFF753FEA10616D52B782E
:400CC000134A13F0080F117814BF012302230B431370114A137803F0DF03137010232B7070BD1A78D2065CBF10221A7070BD00BF656400405D81FF1F6681FF1F6081FF1F98
:400D000004650040746400406581FF1F6781FF1F6481FF1F80E100E0856400406881FF1F6D81FF1F6C81FF1F30B51B4A1378102B2CD11A4B1C7814F0100F1C464FF001038F
:400D400026D1174D98402B60C0B211B11843492300E045231370134B8221187003F8901CFF211033197010490020087019780029FCD12378DB07FCD5084B1B7803F00A0327
:400D80000A2B07D110231370032030BD022030BD184630BD002030BD5D81FF1F6564004080E100E004650040546500400D4B1A78520714D50C4A52211170FF21A032117028
:400DC0000A490020087011780029FCD1084A102111701A7812F0210FFBD0002070470220704700BF6564004074640040546500405D81FF1F134B1A7812F0040F1A461ED01E
:400E0000062183F89F00D973FF21AF3319700E490020087019780029FCD10C4B462119701178C907FCD5074A60211278197002F0020202F0FF0002B9704703207047022079
:400E4000704700BF65640040546500405D81FF1F0230800803D000BF01380046FCD17047EFF3108072B6704780F31088704700BF014B1868704700BF3C81FF1F0E4B70B542
:400E80001E460E4C0025E41AA410A54204D056F8253098470135F8E700F0AAFC084B094C1E46E41AA4100025A54204D056F8253098470135F8E770BDFC170000FC1700002D
:400EC000FC1700000418000003460244934202D003F8011BFAE77047000000001815AF19FF1815AE19FF1815A115C819FF1815A015C019FF1815AE15D5168015A8163F15F8
:400F0000D316001540158D16141520160015A115C815DA1612158116CF15D916F115DB1640152E15A415A619FF0000000001140A6464323200127A0000042896100800007C
:400F4000800040001815A115C019FF1815A015C819FF1815AE15D5168015A8163F15D316001540158D16141520160015A115C015DA1612158116CF15D916F115DB164015F0
:400F80002E15A415A619FF1815AE15D5168015A8163F15D316001540158D16141520160015A115C815DA1612158116EF15D916A115DB1600152E15A415A619FF1815AE15F1
:400FC000D5168015A8163F15D316001540158D16141520160015A115C815DA1602158116CF15D916F115DB1640152E15A415A619FF0000000001140A6464323200093D005A
:401000000004289610080202800040001815AE15A415D5165015A8163F15D31600154015AD168B15D9162215DB16351532158116FF15A615DA161219FF20FF010100000008
:4010400000000000000000005F5F0000000007070007070000147F7F1C7F7F140000242A7F7F2A1200466630180C666200307A4F5D377A4800000000070700000000001C8D
:401080003E63410000000041633E1C0000082A3E1C1C3E2A080008083E3E080800000080E060000000000808080808080000000060600000006030180C060301003E7F5120
:4010C00049457F3E000040427F7F40400000727B49496F660000226149497F36001814527F7F50100000276F4949793300003E7F49497B3200000301717D0F070000367F1E
:4011000049497F360000266F49497F3E000000006C6C000000000080EC6C00000000081C36634100000024242424242400004163361C08000000020351590F06003E7F413E
:401140005D5D5F1E00007C7E13137E7C00417F7F49497F36001C3E634141632200417F7F41633E1C00417F7F495D416300417F7F491D0103003C7E434151737200007F7FF3
:4011800008087F7F000041417F7F414100307040417F3F0100417F7F081C776300417F7F41406070007F7F0E1C0E7F7F007F7F060C187F7F001C3E6341633E1C00417F7F1E
:4011C00049090706003C7E4351336E5C00417F7F09193F660000266F49497B32000003417F7F410300003F7F40407F3F00001F3F60603F1F007F7F3018307F7F0061731E07
:401200000C1E73610000074F78784F0700476371594D67730000007F7F414100000103060C18306000000041417F7F0000080C0603060C0800808080808080808000000282
:40124000060C080000207454543C784000433F7F44447C380000387C44446C2800387C44453F7F400000387C54545C180000487E7F490302000098BCA4A4FC7C00417F7F26
:4012800008047C78000000447D7D4000000060E08084FC7D00417F7F10386C44000000417F7F400000787C0C380C7C7800047C78040478780000387C44447C380084FCF8AD
:4012C000A4243C1800183C24A4F8FC8400447C78440C08000000485C545474200000043F7F44642000003C7C40407C7C00001C3C60603C1C003C7C6038607C3C00446C3854
:4013000010386C4400009CBCA0A0FC7C00004C64745C4C4400004141773E0808000000007F7F0000000008083E7741410002030103020101000000000000000000000000FC
:40134000FFFF00000018181818181818180000001F1F181818000000F8F8181818181818F8F80000001818181F1F0000001818181F1F181818000000FFFF181818181818D7
:40138000F8F8181818181818FFFF000000181818FFFF18181800081C3E0808080000080C3E0C080000000808083E1C08000008183E1808000000000000F0F0F0F0F0F0F0B9
:4013C000F000000000F0F0F0F0F0F0F0F0000000000F0F0F0F00000000FFFFFFFFF0F0F0F00F0F0F0FF0F0F0F0FFFFFFFF0F0F0F0F000000000F0F0F0FF0F0F0F0FFFFFF58
:40140000FF00000000FFFFFFFFF0F0F0F00F0F0F0F0F0F0F0F0F0F0F0FFFFFFFFFFFFFFFFF0F0F0F0FFFFFFFFFFFFFFFFFC0C0C0C0C0C0C0C0FCFCFCFCFCFCFCFC00000031
:4014400000000000000000007D7D000000387C44FE446C2800487E7F4949636200005A3C24243C5A000015577E7E571500000000777700000040487E771D09010000030328
:4014800000000303001C225D5555221C00485D554F5E500000081C362A1C362200000808080808180000001010100000001C225D4D55221C000000010101010000000E1B9C
:4014C000111B0E00000048487E7E48480000191D1517120000001115151F0A0000000004070300000000F8F84040783800020F7F7F017F0100000000181800000000004090
:4015000040600000000000111F1F100000004E5B515B4E000022361C2A361C0800021F0030287C2000021F0048645448001115150A30287C200030784D4570300000787D8B
:4015400015147C780000787C14157D780000787C15157C780000787D15157D780000797D14147D790000787E15157E7800787C127F7F496B000C9EB3E1E1331200447D7D92
:401580005454544400447C7C5555544400447C7D5555554400447D7D54555544000044457D7C4444000044447C7D4544000044457D7D4544000045457C7C454500497F7FFA
:4015C00049633E1C00007A7911227A7900387C4545447C3800387C4444457D3800387C4545457C3800387D4545457D3800387D4544457D380042663C183C6642005C3E73CB
:401600005D673E1D01003C7D41407C3C00003C7C40417D3C00003C7D41417D3C00003D7D40407D3D00000C5D71705C0C007F7F2222221C00007E7F4949493E360020755556
:40164000543C784000207454553D784000207455553D784000207555553D794000207555543D794000207655553E7840002074547C3454580000183CA4E424280000387DFD
:4016800055545C180000387C54555D180000387D55555D180000397D54545D19000000497B7A4000000000487A7B41000000004A797942000000024A7878420200003575EF
:4016C0004B4E7D3100087A71090A7A71000030794B4A7830000030784A4B79300000307A49497A3000003279494A7A310000327A48487A32000008086B6B08080080B07891
:4017000068587834040038794342787800003878424379780000387A41417A7800003A7A40407A7A000098B8A2A3F97800007E242424180000009ABAA0A0FA7A0048764190
:401740002048424F2D49435400544920454D3200526561647920746F2072756E2E00005100401000205100405000F0510040100000000140001000140140000800400140E5
:40178000000A004C0140000200500140200043000000000000000000000000000000000000000000000000000000000000000000000000000000000000000000000000009C
:4017C000000000000000000000000000000000000000000000000000000000000000000000000000000000000000000000000000F8B500BFF8BC08BC9E4670474D0000001D
:40180000F9080000F8B500BFF8BC08BC9E4670472900000028180000C880FF1F780000003000000000000000000000000000E02EC05D00001800000000366E0100000000C9
:4018400090170000B0170000D0170000000000000000000000000000000000008E17000000000000000000000000000000000000000000000000000000000000000000006E
:4018800000000000000000000000000000000000000000000000000000000000DC80FF1F0000000000000000000000000000000000000000000000000000000000000000AE
:4018C00000000000000000000000000000000000000000000000000000000000000000000000000000000000000000000000000000000000000000000000000000000000E8
:4019000000000000000000000000000000000000000000000000000000000000000000000000000000000000000000000000000000000000000000000000000000000000A7
:401940000000000000000000000000000000000000000000000000000000000000000000000000000000000000000000000000000000000000000000000000000000000067
:401980000000000000000000000000000000000000000000000000000000000000000000000000000000000000000000000000000000000000000000000000000000000027
:020000040003F7
:0200000480007A
:4000000001520040026400400165004047040140310501405F060140430701405A140140471501404D16014041170140024001400141014003420140124901400450014067
:40004000015101406001270F3708240400A9017F025404FF050109220AB50B050C4D0D030E92101A11051260137814A51540164A1707180219011CCC1D3A1E131F042110A3
:40008000220423072404250329012A022D082E012F07317F34FF3E103F0152F6580459045B045F0181488302870189428B098D038F20914F9590970B99039D409F14A14057
:4000C000A30BA501A901AD1FB11FB3E0B908BF04D420D604D904DB04DF010008034608110A010B1010A813401A08220125082604274028102A202B932C202E202F8130216C
:400100003202334434103602374439463B123C803D443F125C025E605F086002628065026709691470A8722073408502C00FC20FC40FCAFFCCFFCEFFD6F0D8B00105032079
:4001400005B1070809040B010C400D250E13100E11C01230142A1531165417021B101C461D011EA91F0E210422012321248025C0265628FF2C332D252E0C314033303580FF
:4001800036FF370F39223B803F01580459045F01805D82A2830184E289058A088C0D90409105921D940496E099029AFF9C929D059E60A105A202A401A801AC3DAD05AEC2E9
:4001C000B2FFB303B704B988BE04BF44C053C502C605C805C9FFCAFFCBFFCC42CDA0CE70D008D110D804D904DA04DF01E148E240E348E480E548E680E74800880120034099
:40020000060209210A010B100E010F5010A8120213401501160817441B081E011F802010230124042520268927242B812D082E402F80321233403684372139013B123C081C
:400240003D023E023F52401049084A014B0452405A405B409110920A9502960197199B409F0CA0A8A108A204A444A69AA791B648C08FC2BFC4FFCAD9CCFDCEF5D002D20868
:400280000010013F02210504060109220A040B180D180E030F0610401280134015011602191C1B221D2220082132230824082501271E284029062A802C102D2A2E212F1061
:4002C0003007316032C0331F3438382039083A023E104062440345D0470B481249FF4A7F4BFF4C424DA04E70500C580459045A045F016109624063096430650981038320B1
:40030000857887038B438D78930B977899019B069F13A103A340A501A601A704A902AB81AF78B201B307B580B778BB08BF40D804D904DF0100040240034A09040A4010081E
:400340001282130417041A241B031D042108220223202680271529282B812E482F8430A031083201361A3750380839023A403B103C043D803F124204430448404A044B0251
:40038000500483208408871488208A0290049102924293149620972299289A089B409D049F01A080A144A20CA388A440A612A703AA40C00FC20CC42FCAFFCCFFCEFFD00686
:4003C000D2040001011802060304040105040632072009080B140E130F02111C1504173818121A011D1C1E132001220427012A1B2D0C2F103007321033023420353C36080E
:4004000037013A023B203E04580459045F01801081018202830284FF8505870A89208A408E209106921494409710988499089A089B059D019E189F04A00FA101A302A50F60
:40044000AA08AC10AE01AF02B03FB120B280B31FB440B520B80AD804D904DF010008012003410545080109280A010D800E04124213101502172019281AC01B101D411E04A0
:400480001F0420082105231025C0260827282A082B812C012F123120320633403602374839183B023C083D883E093F1090049110920B930495029620971A9A409B409D2031
:4004C0009E089F09A080A128A204A388A444A612A711C0BFC2CFC45BCA5BCCDFCEF73380CC10A7808780A780E6101220130414407380774083808440862087049B40AB40F9
:40050000C430DC80DE20E040E280E450EE8000010A0110011A0100030000030003000000000B0B0000000000000000000000000000000000000000000000000000000000F2
:40054000000000000000000000000000000000000000000000000000000000000000000000000000000000000000000000000000000000000000000000000000000000007B
:40058000000000000000000000000000000000000000000000000000000000000000000000000000000000000000000000000000000000000000000000000000000000003B
:4005C00000000000000000000000000000000000000000000000000000000000000000000000000000000000000000000000000000000000000000000000000000000000FB
:4006000000000000000000000000000000000000000000000000000000000000000000000000000000000000000000000000000000000000000000000000000000000000BA
:0200000490006A
:0400000000004005B7
:0200000490105A
:04000000BC90ACAF55
:0200000490303A
:020000003E2F91
:0200000490402A
:4000000000000000000000000000000000000000000000000000000000000000000000000000000000000000000000000000000000000000000000000000000000000000C0
:400040000000000000000000000000000000000000000000000000000000000000000000000000000000000000000000000000000000000000000000000000000000000080
:400080000000000000000000000000000000000000000000000000000000000000000000000000000000000000000000000000000000000000000000000000000000000040
:4000C0000000000000000000000000000000000000000000000000000000000000000000000000000000000000000000000000000000000000000000000000000000000000
:0200000490501A
:0C00000000012E16106900012E1F4E9802
:00000001FF